:1000000000308A00412800000A108A100A11820775
:1000100008340434023401340A108A100A118207A9
:1000200001340234043408340A108A100A11820799
:1000300008340C34043406340234033401340934F3
:100040000A108A100A118207093401340334023479
:10005000063404340C34083423308400831300083D
:10006000031940280130F800F701F70B3528F80B89
:1000700034284A30F700F70B3B283E28800B322803
:10008000080003081F398300831603170908C039C5
:10009000890003131F129F12003003178800831278
:1000A00087018801890183130030831603138600BA
:1000B00083128601A101071C8428871C702821084F
:1000C000073C031C702821081420F8008600023029
:1000D000A200FA30A3002C20A20B6928A10A5F28F5
:1000E000071D83282108033C031C832821080420C2
:1000F000F80086000230A200FA30A3002C20A20BE8
:100100007C28A10A7228AA28871C97282108073C66
:10011000031C972821082020F80086000230A20046
:10012000FA30A3002C20A20B9028A10A8628071DD4
:10013000AA282108033C031CAA2821080C20F80047
:1001400086000230A200FA30A3002C20A20BA328C4
:08015000A10A99285A28630056
:04400E00A12CFF3FA3
:00000001FF
;PIC16F887
;CRC=AD9D  CREATED="27-mar.-23 22:23"
